:100000000C942A000C9447000C9447000C94470071
:100010000C9447000C9447000C9447000C94470044
:100020000C9447000C9447000C9447000C94470034
:100030000C9447000C9447000C9447000C94470024
:100040000C9447000C9447000C9447000C94470014
:100050000C94470011241FBECFE5D8E0DEBFCDBF12
:1000600010E0A0E6B0E0E6EDF2E002C005900D92EF
:10007000AC37B107D9F720E0ACE7B0E001C01D9282
:10008000AE37B207E1F70E94CA000C9469010C94E4
:10009000000030EF2FEF9FEE4FED5FEB6FE73ABBC5
:1000A0002BBB8BB38F708BBB000089B38F70809399
:1000B0007C008F30B1F7EFE3FCE93197F1F700C036
:1000C000000089B38F7080937C008F30A1F39BBBBD
:1000D000000089B38F7080937C008F3019F01092EC
:1000E0007D0024C04BBB000089B38F7080937C00DF
:1000F0008F3021F081E080937D0018C05BBB000051
:1001000089B38F7080937C008F3021F082E08093E0
:100110007D000CC06BBB000089B38F7080937C00A6
:100120008F3009F4BCCF83E080937D0080917C0008
:100130008E3059F4E0917D00F0E0EE0FFF1FEE0FDE
:10014000FF1FE05AFF4F808108958D3059F4E091F0
:100150007D00F0E0EE0FFF1FEE0FFF1FE05AFF4F94
:10016000818108958B3059F4E0917D00F0E0EE0F2D
:10017000FF1FEE0FFF1FE05AFF4F82810895E091AD
:100180007D00F0E0EE0FFF1FEE0FFF1FE05AFF4F64
:10019000838108950E942A0140E750E060E081E0F9
:1001A0000E94510180EC0E94DA000E9449000E94E6
:1001B0000201F8CF98B39F70282F207F922B98BB15
:1001C000C098C19A32E03A95F1F700C0C198E7ECC7
:1001D000F0E03197F1F700C0000028B32F70F0E194
:1001E0008F9FC0011124822B88BBC19A32E03A95BF
:1001F000F1F700C0C1988FE99FE00197F1F700C0C7
:100200000000089598B39F70282F207F922B98BBF1
:10021000C09AC19A32E03A95F1F700C0C198E7EC74
:10022000F0E03197F1F700C0000028B32F70F0E143
:100230008F9FC0011124822B88BBC19A32E03A956E
:10024000F1F700C0C1988FE99FE00197F1F700C076
:10025000000008958FEF87BB8FE39CE90197F1F7CA
:1002600000C0000082E00E94DA0088E20E94DA000A
:100270008CE00E94DA0081E00E94DA0082E80E94AD
:10028000DA000895CF93DF93EC018881882331F061
:1002900021960E94020189918111FBCFDF91CF91BC
:1002A0000895CF93DF93EA01813031F4862F8F7068
:1002B00080680E94DA0007C0823029F4862F8F7090
:1002C000806C0E94DA00CE010E944201DF91CF9142
:0602D0000895F894FFCF31
:1002D6003738392F3435362A3132332D20303D2BFD
:0C02E60050726573732061206B65790015
:00000001FF
